:020000040800F2
:1000000028090020A1010008750A00086D0A0008EF
:10001000710A000837090008771600080000000080
:100020000000000000000000000000006D0C00084F
:100030008D09000800000000050B0008850D000870
:10004000BB010008BB010008BB010008BB010008A0
:10005000BB010008BB010008BB010008BB01000890
:10006000BB010008BB010008BB010008BB01000880
:10007000BB010008BB010008BB010008BB01000870
:10008000BB010008BB010008BB010008BB01000860
:10009000BB010008BB010008BB010008BB01000850
:1000A000BB010008BB010008BB010008BB01000840
:1000B000290F00084D0F0008750F0008BB0100084C
:1000C000BB010008BB010008BB010008BB01000820
:1000D000BB01000859140008BB0100087D1400088A
:1000E000BB010008BB010008BB010008BB01000800
:1000F000BB010008BB010008BB010008BB010008F0
:10010000BB010008BB0100089D0F0008BB010008EF
:10011000BB010008BB010008BB010008BB010008CF
:10012000BB010008BB010008BB010008BB010008BF
:10013000BB010008BB010008BB010008BB010008AF
:10014000BB010008BB010008BB010008BB0100089F
:10015000BB010008BB010008BB010008BB0100088F
:10016000BB010008BB010008BB010008BB0100087F
:10017000BB010008BB010008BB010008BB0100086F
:10018000BB010008BB010008DFF810D000F0B4FA92
:100190000048004795300008AFF300802809002090
:1001A0000648804706480047FEE7FEE7FEE7FEE711
:1001B000FEE7FEE7FEE7FEE7FEE7FEE79D0D00082F
:1001C000890100082DE9FE4F804681EA0300C00F37
:1001D0000C46009021F0004123F00045B8EB0200EE
:1001E000A94105D24046214690461C460B46024690
:1001F00023F00040104347D0270DC7F30A00C3F394
:100200000A510290401A019040286BDAC3F31300A0
:1002100040F4801B0098924620B10023D2EB030AE1
:1002200063EB0B0B01985946C0F14002504600F0B9
:1002300095F906460D4650465946019A00F0ADF92B
:1002400010EB08006141002487EA115284EAE77349
:100250001A4340D0009A62B3019A012A4FEA07522A
:1002600015DC001B61EB02014FF0004202EA07526D
:10027000CDE90042001C41F5801132462B4600F0CA
:10028000ADF903B0BDE8F08F40462146F9E7001B09
:1002900061EB0201001C41F5801300185B4120183E
:1002A000A2F5001747EB030140EAD570B6196D417E
:1002B00011E06D084FEA360645EAC0754FEA07526D
:1002C000001B61EB0201001C41F5801149084FEA57
:1002D00030000019514132462B4603B0BDE8F04FC3
:1002E00000F06DB90098012240000023D0EB02021B
:1002F00063EBE073009821464FEAE074B8EB00002E
:1003000061EB0401E9E783F000435BE781F0004122
:1003100058E72DE9FE4F81EA030404F0004421F080
:10032000004100944FF0000B23F0004350EA010419
:100330005ED052EA03045BD0C3F30A54C1F30A55FA
:100340002C44A4F2F3340194A0FB0254C1F3130132
:1003500041F48011C3F3130343F4801301FB0244FF
:1003600000FB034E840A970A44EA815447EA835704
:10037000A4FB076802958D0A05FB07854FEA932CBD
:1003800004FB0C542705029D4FEA065847EA16372E
:10039000B5EB08056EEB070C870E920E47EA811746
:1003A00042EA8312A7FB0201B6EB0B0164EB0004E7
:1003B0002B0D43EA0C335E1844EB1C50DA465146D1
:1003C000E7FB0201C5F313044FEA0B3343EA14536E
:1003D0004FEA0432019C43EA0603A4F10C040294A0
:1003E000009CCDE900B400F0F9F803B0BDE8F08F4F
:1003F00000200146F9E72DE9F04D81EA030404F0FD
:10040000004B21F0004514464FF0000A23F0004154
:1004100050EA050220D054EA01021DD0C5F30A5764
:100420000246C5F31303C1F31300C1F30A5640F4A7
:10043000801543F48013A7EB0608101BD64608F27C
:10044000FD3873EB050002D308F1010801E09218B2
:100450005B41B8F1000F03DA00200146BDE8F08DE2
:1004600000204FF48011064684460EE0171B73EB04
:10047000050705D3121B63EB050306434CEA010C89
:1004800049084FEA300092185B4150EA0107EDD16C
:1004900052EA030012D082EA040083EA050108430D
:1004A00005D0101BAB4106D20122002306E000223A
:1004B0004FF0004302E06FF0010253101AEB060008
:1004C0004CEB085110EB0A0041EB0B01BDE8F04D7D
:1004D00000F075B80EB540F2334102910021CDE92C
:1004E00000110A460B4600F079F803B000BD70B564
:1004F000C1F30A5201F000450024C1F3130140F298
:10050000FF3341F480119A4201DA002070BD40F2BD
:1005100033439A42A2F2334203DC524200F02DF8F8
:1005200000E090402C43F1D0404270BD30B5041E35
:1005300071F1000404DB4FF00044404264EB010120
:10054000141E73F1000405DB1C464FF000435242B9
:1005500063EB04038B4208BF824230BD202A04DBD8
:10056000203A00FA02F1002070479140C2F12003C6
:1005700020FA03F3194390407047202A04DB203A05
:1005800021FA02F00021704721FA02F3D040C2F1B3
:1005900020029140084319467047202A06DBCB17FA
:1005A000203A41FA02F043EAE07306E041FA02F32E
:1005B000D040C2F12002914008431946704710B55F
:1005C000141E73F1000408DA401C41F10001921876
:1005D0005B411A4301D120F0010010BD2DE9F04D1F
:1005E00092469B4611B1B1FA81F202E0B0FA80F274
:1005F00020329046FFF7B2FF04460F4640EA0A0059
:1006000041EA0B0153465A46084313D0114653EAB8
:10061000010019D0C8F140025046FFF7AEFF054671
:100620000E46504659464246FFF798FF084305D00C
:10063000012004E020463946BDE8F08D0020054346
:1006400046EAE0762C4337430A986305E40AA0EBB8
:1006500008000022FD0A44EA47540A3002D500206F
:100660000146E9E7010510196941DDE9084500196E
:100670006941BDE8F04DA2E770B521F000430343A6
:100680000CD0C1F30A550024D5EB040564EB040338
:10069000D617AD1AB34102DB0020014670BD201809
:1006A00041EB025170BD0EB5C10F80EAE070084405
:1006B000CA07002140F233438DE80E000A460B467C
:1006C000FFF78CFF03B000BD30B5041E71F10004CC
:1006D00004DB4FF00044404264EB0101141E73F14F
:1006E000000405DB1C464FF00043524263EB040359
:1006F000994208BF904230BD064C074D06E0E068C5
:1007000040F0010394E8070098471034AC42F6D358
:10071000FFF73EFD08550008285500082DE9F04D6B
:1007200000231A461B1A8A4103DB00200146BDE85C
:10073000F08DC1F30A52C1F3130141F480154FF05B
:10074000000BD10702D100186D41521E002704464C
:1007500040F2FF11384601EB620A3E4680460246EF
:1007600000204FF48011FFF708FFC2197141BB1838
:1007700046EB0100B4EB030C75EB000C04D3E41A58
:1007800065EB000517460E46241908F101006D417E
:1007900080463428E3DDF91946EB0600091BA84121
:1007A00003D24FF0FF32134601E0002213461BEB49
:1007B000070046EB0A51BDE8F04DFFF700BF21B13D
:1007C000826842F00102826003E0826822F0010246
:1007D000826070470021084A1168084A1140D0E938
:1007E00000231A4383681A43C3681A431143044A17
:1007F000C2F804137047000004230140E030FCFFFE
:10080000002001400146C86C80B2704702460020BB
:1008100013680B400BB1012000E00020704700007E
:1008200030B50246002000235068104C20400D795E
:100830000C6844EA05242043506090680C4C20402A
:10084000D1E903542C438D682C434D7944EA450487
:1008500020439060D06A20F470000C7D641EE4B2E6
:10086000234340EA0350D06230BD0000FFFEFFFC8E
:10087000FDF7FFC0F0B504460D4600200021092D0C
:1008800011DDE068A5F10A0606EB4607072606FA21
:1008900007F18843A5F10A0606EB460603FA06F1BE
:1008A0000843E0600CE0206905EB4507072606FADF
:1008B00007F1884305EB450603FA06F1084320617A
:1008C000072A0FDA606B561E06EB86071F2606FA0C
:1008D00007F18843561E06EB860605FA06F1084323
:1008E000606322E00D2A0FDA206BD61F06EB860725
:1008F0001F2606FA07F18843D61F06EB860605FA7F
:1009000006F10843206310E0E06AA2F10D0606EB51
:1009100086071F2606FA07F18843A2F10D0606EBAB
:10092000860605FA06F10843E062F0BD816841F0F1
:1009300080418160704700BFFEE7000070B502464D
:100940000B46002000210AE0545C84EA2025EDB229
:10095000044E36F8155085EA0025A8B2491C994284
:10096000F2DB70BD7452000870B502460B460020E1
:10097000002105E0545C80EA0405034E705D491CCB
:100980009942F7DB70BD0000745100087047F0B564
:100990000A4600210023002400BF3DE0012505FA9E
:1009A00001F3156805EA03049C4234D105684F0041
:1009B0000326BE40B543056015794E00B540066874
:1009C000354305601579012D02D01579022D16D118
:1009D00085684F000326BE40B543856055794E00BB
:1009E000B540866835438560456801268E40B5432D
:1009F0004560456896798E40B6B235434560C56816
:100A00004F000326BE40B543C560D5794E00B540C2
:100A1000C6683543C560491C1029BFD3F0BDF0B589
:100A2000002300244D07ED0E02FA05F3CE1000F16D
:100A3000200555F826504E07F70E0F26BE40B54349
:100A4000CF1000F1200646F82750CE1000F1200507
:100A500055F8265045EA0304CE1000F1200545F86C
:100A60002640F0BD418370470183704700BFFEE719
:100A700000BFFEE77047000070B5002100230F2281
:100A8000C4781CB3174C246804F4E064C4F5E06433
:100A9000C4F30721C1F10404E3B20A4144789C4045
:100AA000E1B28478144021430C07210E0E4C0578E6
:100AB0006155047804F01F050124AC4005786D11E0
:100AC000AD0005F1E025C5F8004109E0047804F027
:100AD0001F050124AC40054D0678761145F82640E7
:100AE00070BD00000CED00E000E400E080E100E0FB
:100AF00002490143024A1160704700000000FA05F4
:100B00000CED00E07047000029B1064A126802436C
:100B1000044B1A6004E0034A12688243014B1A60D6
:100B2000704700003038024029B1064A126802437B
:100B3000044B1A6004E0034A12688243014B1A60B6
:100B4000704700004038024029B1064A126802434B
:100B5000044B1A6004E0034A12688243014B1A6096
:100B6000704700004438024029B1064A1268024327
:100B7000044B1A6004E0034A12688243014B1A6076
:100B80007047000024380240F0B500210022002404
:100B9000022500260223324F3F6807F00C0121B1E5
:100BA000042905D0082937D105E02E4F076036E02B
:100BB0002C4F076033E02A4F3F1F3F68C7F3805632
:100BC000274F3F1F3F6807F03F036EB1254FB7FB2C
:100BD000F3F7DFF88CC0ACF1040CDCF800C0CCF308
:100BE000881C07FB0CF40CE01E4FB7FBF3F7DFF893
:100BF00070C0ACF1040CDCF800C0CCF3881C07FB1F
:100C00000CF4174F3F1F3F68C7F301477F1C7D005F
:100C1000B4FBF5F7076002E0124F076000BF00BFAA
:100C20000F4F3F6807F0F00109090F4F7A5C076822
:100C3000D74047600A4F3F6807F4E051890A0A4FDE
:100C40007A5C4768D7408760054F3F6807F460418A
:100C5000490B054F7A5C4768D740C760F0BD00007C
:100C6000083802400024F4005800002070470000BB
:100C70000CB50020019000903448006840F48030AA
:100C80003249086000BF3148006800F4003000902D
:100C90000198401C0190009818B90198B0F5A04F38
:100CA000F1D12A48006800F4003010B10120009012
:100CB00001E0002000900098012846D123484030F0
:100CC000006840F0805021494031086020480068A9
:100CD00040F440401E4908601C48083000681B4929
:100CE000083108600846006840F400400860084683
:100CF000006840F4A05008601648091F0860081FEB
:100D0000006840F08070091F086000BF0F4800684D
:100D100000F000700028F9D040F205700E4908601C
:100D20000A480830006820F00300084908310860CC
:100D30000846006840F00200086000BF0348083021
:100D4000006800F00C000828F8D10CBD0038024003
:100D500000700040082A4007003C0240042808D1E7
:100D60004FF0E021096941F004014FF0E0221161E8
:100D700007E04FF0E021096921F004014FF0E02283
:100D80001161704710B504480068401C02490860B2
:100D900002F042FF10BD00004400002010B51548CD
:100DA000006840F47000134908601348006840F080
:100DB00001001149086000200F49083108600E4801
:100DC00000680E4908400C4908600D48091D08607C
:100DD000081F006820F48020091F086000200649D1
:100DE0000C310860FFF744FF4FF000600149803983
:100DF000086010BD88ED00E000380240FFFFF6FEFD
:100E000010300024F0B50C46154600210022068C57
:100E10004FF6FE773E400684018B028C4FF60C762F
:100E200031407E1C06EA03162E4331434FF6F57619
:100E3000324044F00106324301830284F0BDF0B534
:100E40000C461546002100220026078C4FF6EF7C49
:100E500007EA0C070784018B028C4FF6FF7707EA3D
:100E6000041640F6FF4739404FF6FF7707EA03378D
:100E700039434FF6FF7707EA052739434FF65F7787
:100E80003A4046F010073A4301830284F0BDF0B5C2
:100E90000C461546002100220026078C4FF6FF6CF9
:100EA00007EA0C070784818B028C4FF6FF7707EA6D
:100EB00004264FF60C7739404FF6FF7707EA031701
:100EC0002F4339434FF2FF573A4046F480773A4375
:100ED00081830284F0BDF0B50C4615460021002246
:100EE0000026078C4EF6FF7C07EA0C070784818BEF
:100EF000028C4FF6FF7707EA043640F6FF47394089
:100F00004FF6FF7707EA052739434FF6FF7707EAE1
:100F10000337394345F6FF773A4046F480573A4362
:100F200081830284F0BD000010B50221480700F063
:100F300073F840B10221480700F050F80248407AA7
:100F4000401C0149487210BDE404002010B5022184
:100F5000064800F061F840B10221044800F03EF874
:100F60000348C07A401C0249C87210BD000400400A
:100F7000E404002010B50221064800F04DF840B10D
:100F80000221044800F02AF80348407B401C024933
:100F9000487310BD00080040E404002010B5022191
:100FA000064800F039F840B10221044800F016F874
:100FB0000348C07B401C0249C87310BD000C0040B0
:100FC000E404002021B1028842F08002028004E0A3
:100FD00002884FF67F731A4002807047CA4302822C
:100FE000704721B1028842F00102028004E00288C9
:100FF0004FF6FE731A400280704731B1B0F84420BA
:1010000042F40042A0F8442005E0B0F84420C2F3C6
:101010000E02A0F84420704730B50246002000239D
:101020000024158A05EA0103958905EA010413B134
:101030000CB1012000E0002030BD70B505460C4623
:10104000208850B92389A28861882846FFF7DAFEF4
:10105000E188284600F087F925E0208804280AD195
:101060002389A28861882846FFF7E9FEE18828469F
:1010700000F082F917E0208808280AD12389A28885
:1010800061882846FFF703FFE188284600F081F9D0
:1010900009E02389A28861882846FFF71CFFE188C0
:1010A000284600F07FF970BD0021018041800121B8
:1010B00081800021C180018170471AB183890B436F
:1010C000838102E083898B438381704770B500245C
:1010D00000220023058C4FF6FE7635400584028CF5
:1010E0008388048B4FF68F752C40B51E2C400D88DD
:1010F0002C43751E2A408D892A434D882A43104D62
:10110000A84202D00F4DA84213D14FF6F7752A40DE
:10111000CD892A434FF6FB752A408D882A434FF626
:10112000FF652B404FF6FF552B400D8A2B434D8A10
:101130002B43838004838D684563028470BD000067
:1011400000000140000401400A460021018B4FF6D7
:10115000F7731940114301837047000070B50024F4
:1011600000220023058C4FF6EF7635400584028C73
:101170008388048B48F6FF752C404FF6FF452C40C2
:101180000D884FF6FF7606EA05252C434FF6DF75EE
:101190002A408D8906EA05152A434D8806EA051579
:1011A0002A43154DA84202D0144DA8421DD14FF636
:1011B0007F752A40CD894FF6FF7606EA05152A434A
:1011C0004FF6BF752A408D8806EA05152A434FF66B
:1011D000FF352B404FF2FF752B400D8A06EA85053F
:1011E0002B434D8A06EA85052B43838004838D6853
:1011F0008563028470BD00000000014000040140CE
:101200000A460021018B4FF2FF7319404FF6FF731E
:1012100003EA0223194301837047000070B50024DC
:1012200000220023058C4FF6FF6635400584028CB2
:101230008388848B4FF68F752C404FF6FC752C40BD
:101240000D882C434FF6FF552A408D894FF6FF76C7
:1012500006EA05252A434D8806EA05252A43154D49
:10126000A84202D0144DA8421DD14FF2FF752A406A
:10127000CD894FF6FF7606EA05252A434FF6FF355E
:101280002A408D8806EA05252A434EF6FF752B4035
:101290004DF6FF752B400D8A06EA05152B434D8A46
:1012A00006EA05152B43838084838D68C563028419
:1012B00070BD000000000140000401400A4600210A
:1012C000818B4FF6F77319401143818370470000FB
:1012D00070B5002200230024058C4EF6FF763540C1
:1012E0000584038C8488828B48F6FF752A404FF66C
:1012F000FF452A400D884FF6FF7606EA05252A436A
:101300004DF6FF752B408D8906EA05352B434D8838
:1013100006EA05352B430A4DA84202D0094DA842E2
:1013200008D14BF6FF752C400D8A4FF6FF7606EA82
:1013300085152C43848082838D680564038470BD89
:1013400000000140000401400A460021818B4FF259
:10135000FF7319404FF6FF7303EA02231943818399
:10136000704741627047028B4FF6F3731A40028355
:10137000028B0A4302837047028B4FF2FF331A40FD
:101380000283028B4FF6FF7303EA01231A430283A1
:101390007047828B4FF6F3731A408283828B0A4325
:1013A00082837047828B4FF2FF331A408283828B95
:1013B0004FF6FF7303EA01231A438283704700004C
:1013C00000220288184B98420ED0184B98420BD03E
:1013D000B0F1804F08D0164B984205D0154B98427B
:1013E00002D0154B984204D14FF68F731A404B88A8
:1013F0001A43124B984207D0114B984204D04FF633
:10140000FF431A400B891A4302804B68C3620B8862
:101410000385054B984202D0044B984201D18B7A48
:1014200003860123838270470000014000040140CD
:101430000004004000080040000C00400010004084
:10144000001400404FF0FF31416000210180018114
:10145000418081727047000010B540F22551064866
:1014600000F046F830B1044800F0FCF8C4B2204661
:1014700002F064FE10BD00000010014010B540F203
:101480002551094800F034F860B1074800F0EAF847
:10149000C4B2204603F0D0F9204602F0E9FF20460E
:1014A00003F0C4FB10BD00000048004001F40072CE
:1014B000B2F5007F00D100BFCA430280704721B15E
:1014C000828942F40052828104E082894DF6FF73E2
:1014D0001A408281704702460020B1F5007F00D19A
:1014E00000BF13880B400BB1012000E000207047C3
:1014F00070B50246002400230025002040F66A163D
:10150000B14200D100BFC1F3421501F01F03012613
:1015100006FA03F3012D02D19689334006E0022D2D
:1015200002D1168A334001E0968A33400C1201261C
:1015300006FA04F41688344013B10CB1012000E01F
:10154000002070BDF0B503460024002600250020D1
:1015500040F66A17B94200D100BF1846C1F34214E1
:1015600001F01F06012707FA06F5012C01D10C3006
:1015700004E0022C01D1103000E014301AB10768E9
:101580002F43076002E00768AF430760F0BD00002B
:101590002DE9FF4705460E460024A14600BFA046A0
:1015A000B08900B100BF2C8A24F44054F088044371
:1015B0002C82AC8941F20C608443B08831890843A5
:1015C000718908430443AC81AC8A24F44074B08927
:1015D0000443AC826846FFF7D7FA2048854202D020
:1015E0001F48854202D1DDF80C9001E0DDF808903B
:1015F000A88900F4004040B109EBC90000EB0910D4
:1016000031684900B0FBF1F707E009EBC90000EBD6
:10161000091031688900B0FBF1F76420B7FBF0F0E6
:1016200004012009642101FB1078A88900F400401E
:1016300040B1322000EBC800B0FBF1F000F0070031
:10164000044308E0322000EB08106421B0FBF1F005
:1016500000F00F0004432C81BDE8FF87001001401B
:101660000014014001468888C0F308007047C1F3A8
:1016700008028280704700BFFEE703B40198410072
:10168000009850EAC12018BF04204A0D18BF40F04E
:10169000010040F2FF72B2EB515F08BF40F0020060
:1016A000012808BF052002B07047000000000000BC
:1016B0002DE9F04D2DED040B2DED0E8B96B0DDE9EF
:1016C0002550279CDDF890A025F0004624F0004826
:1016D000BAF1000F14BF0121002101EB4502FC49C2
:1016E00053184A1093422AD3002814BF0123002321
:1016F00003EB44030B44F7498B4220D358EA000123
:101700009FEDF59B76D0DFF8D8B35D4503D1BAF1F4
:10171000000F05D188E0BAF1000F08BF002100D00A
:10172000012101EB450111F5001F08D8002814BF65
:101730000121002101EB440111F5001F0BD99DEDA2
:10174000261B9DED240B16B0BDEC0E8B04B0BDE83E
:10175000F04D00F069BE0027002DBCBFE14988456F
:1017600021DAE1498845A8BF02271CDAC3451ADC03
:10177000DE4901EB2851142908DDC1F1340220FAB9
:1017800002F101FA02F282420DD108E058B9C1F12A
:10179000140228FA02F101FA02F2424503D101F0E3
:1017A0000101C1F1020756EA0A0124D1002C22DA14
:1017B000002D18BF022F01D0012F0AD0022000F007
:1017C0007FFE16B0BDEC0E8B04B0BDE8F04D00F00E
:1017D00013BE022000F074FE00F00EFE51EC100B60
:1017E00081F0004141EC100B16B0BDEC0E8B04B043
:1017F000BDE8F08D18E09FEDBEAB9FEDBF8B0028DC
:1018000071D1B848804522D105F1804010F5801093
:1018100008BFBAF1000F07D0B3450ADC002CA8BFFF
:101820009DED260BE0DA0DE0B0EE490AF0EE690A14
:10183000DAE7002C06DA9DED260B51EC100B81F057
:1018400000416FE0AE48784490ED000BCCE7D845FE
:101850004DD1002C48DA2EB186423AD1BAF1000FB0
:1018600042D126E0BAF1000F13D0022000F028FE8A
:1018700000F0F6FD8DED020B9DED240B8DED000BC0
:1018800010EE900A039961F31E0003909DED020B88
:10189000AAE78DED02AB9DED240B1AEE901A10EE27
:1018A000900A8DED000B61F31E0003909DED020B7D
:1018B0009AE78DED028B9DED240B18EE901A10EE39
:1018C000900A8DED000B61F31E0003909DED020B5D
:1018D0008AE709DA9DED240B51EC190B53EC102B20
:1018E000FEF789FD1EE020E09DED240B7CE786429B
:1018F0001BDAB4F1804F0DD0A4F10050B0F1FF50CD
:1019000013D1002D11DB9DED240B51EC100B02F0D7
:101910004BF907E09DED240B53EC102B51EC100B11
:1019200000F0C2BC41EC100B5EE79DED240B51ECC6
:10193000100B01F05BF8BAF1000FCDE90E0142D1B6
:101940009FED710B46B3A6F1E040B0F17F600CD083
:101950005E4538D1002D00DAA7B3022F0CBF01205D
:101960004FF0FF30FEF79FFEDCE7002D01DD002C7D
:101970000DDA002D01DD002C1FDB002D16DA002C06
:1019800014DB012F08BF9FED620B3FF42DAFB0EECB
:101990004A0AF0EE6A0A27E7022F18BF002D0CD082
:1019A000012F0AD1002DFFF61FAF06E0002DB8BFB2
:1019B000002C08DA012F3FF417AFB0EE480AF0EE22
:1019C000680A11E71BE0012000EBE57050EA07010F
:1019D00015D0791EB0EE498AF0EE698A084308BF37
:1019E0009FED4D8B4E480025804570DD4D494E489A
:1019F000884514DDB0420DDB002C19DB2FE00120FF
:101A000000F05EFD16B0BDEC0E8B04B0BDE8F04DED
:101A100000F016BDB34502DC002C09DC1FE0864255
:101A200002DA002C1BDA03E05E452BDD002C16DD0C
:101A3000022000F045FD00F013FD8DED020B53EC8C
:101A40001A2B51EC180BFEF764FCCDE90001039949
:101A5000019861F31E0003909DED020BC4E6022085
:101A600000F02EFD00F00CFD10EE901A18EE900A1A
:101A70008DED020B8DED008B61F31E0003909DED4B
:101A8000020BB1E69DED0E0B53EC192B51EC100B34
:101A9000FEF739FC9FED260BCDE9080153EC102B26
:101AA0009DED080B51EC100BFEF733FC9FED221B54
:101AB00053EC112BFEF72AFC9DED081B53EC112B68
:101AC000FEF727FC9FED1E1B53EC112B3CE08CE036
:101AD000FFFF1F00FFFF0F00000000000000F03FAD
:101AE0000000F03F0000F07F0000404301FCFFFFDA
:101AF000000000000000F07F000000000000000077
:101B0000B63C000000000000000000000000008063
:101B1000000000000000F0FF000000000000F0BF27
:101B20000000E0410000F043FFFFEF3F0000000035
:101B3000000000000000D03F555555555555D53F84
:101B4000000000000000E03FFEF7E0FB9DED080B09
:101B500041EC1A0B53EC102B51EC100BFEF7D9FB98
:101B600053EC1A2BFEF7D5FB41EC1A0B9FEDFE0B45
:101B700053EC102B9DED080B51EC100BFEF7C9FB3D
:101B800041EC1B0B9FEDFA0B51EC1A0B53EC102B95
:101B9000FEF7BFFB41EC1A0B9FEDF70B53EC102B3C
:101BA0009DED080B51EC100BFEF7B3FB53EC1A2B19
:101BB000FEF7A9FB41EC1A0B51EC1B0B53EC1A2B53
:101BC000FEF700FB0690CDE906519DED060B53ECA8
:101BD0001B2B51EC100BFEF796FB53EC1A2BFEF768
:101BE00095FB41EC100B00F0A1B90020B6F5801F69
:101BF0000EDA9FEDE30B53EC102B9DED0E0B51EC29
:101C0000100BFEF786FBCDE90E016FF034000E4697
:101C100000EB2650A0F2FF37C6F31300DA4940F07C
:101C20007F6646F040568842D8BF002408DDD74979
:101C30008142C8BF012403DC0024A6F580167F1C66
:101C4000D348784400EBC4000F9690ED00CB9DED97
:101C50000E0B53EC1C2B51EC100BFEF754FB9DEDBF
:101C60000E0B41EC1B0B53EC1C2B51EC100BFEF735
:101C7000A9FA41EC100B51EC190B53EC102BFEF7A9
:101C8000BAFB41EC1D0B51EC1B0B53EC1D2BFEF76B
:101C900040FB41EC1A0BBF488DED10AB784410951A
:101CA00090ED000B4FF0005040EA660000EB8440DE
:101CB0008DED080B00F5002009909DED080B53EC0D
:101CC0001C2B51EC100BFEF71EFB9DED0E1B53EC75
:101CD000112BFEF71BFB41EC100B53EC102B9DED71
:101CE000100B51EC100BFEF714FB9DED080B41ECB3
:101CF0001C0B53EC102B9DED100B51EC100BFEF751
:101D000008FB53EC1B2BFEF701FB53EC1C2BFEF7DF
:101D1000FAFA53EC1D2BFEF7FCFA41EC1C0B53ECCA
:101D20001A2B51EC1A0BFEF7F4FA41EC1B0B9A48F4
:101D30000621B0EE4B0AF0EE6B0A784400F0E0FAB0
:101D4000B0EE401AF0EE601AB0EE41DAF0EE61DA71
:101D500053EC1B2B51EC1B0BFEF7DBFA53EC1D2B4A
:101D6000FEF7D7FA9DED100B41EC1B0B53EC1A2B31
:101D700051EC100BFEF726FA53EC1C2BFEF7C9FAB8
:101D800053EC1B2BFEF71EFA9DED100B41EC1B0BC9
:101D900053EC102B51EC100BFEF7BBFA41EC1D0B72
:101DA0009FED7FEB53EC1E2BFEF70CFA53EC1B2B35
:101DB000FEF708FA0890CDE908519DED080B53ECA9
:101DC0001E2B51EC100BFEF79EFA53EC1D2BFEF769
:101DD0009AFA53EC1B2BFEF799FA9DED080B41EC98
:101DE0001D0B53EC102B9DED100B51EC100BFEF75F
:101DF00090FA41EC1B0B53EC1A2B51EC1D0BFEF728
:101E000088FA9DED080B41EC1A0B53EC102B51ECAA
:101E10001C0BFEF77EFA53EC1A2BFEF7D3F941ECBC
:101E20001A0B51EC1B0B53EC1A2BFEF7CBF90C9051
:101E3000CDE90C519DED0C0B53EC1B2B51EC100B11
:101E4000FEF761FA53EC1A2BFEF760FA41EC1B0B1C
:101E50009FED550B53EC102B9DED0C0B51EC100B23
:101E6000FEF757FA41EC1A0B9FED510B51EC1B0B8F
:101E700053EC102BFEF74DFA41EC1B0B9FED4E0B74
:101E800053EC102B9DED0C0B51EC100BFEF741FAAF
:101E900053EC1B2BFEF796F941EC100B48487844A5
:101EA00000EBC40090ED001B51EC100B53EC112B18
:101EB000FEF788F941EC1B0B3846FEF7F4FBCDE941
:101EC000080153EC1B2B51EC1A0BFEF77BF941EC8C
:101ED000100B3C48784400EBC40090ED00CB51EC73
:101EE000100B53EC1C2BFEF76DF99DED081B53EC0A
:101EF000112BFEF767F90690CDE906519DED080B11
:101F000053EC102B9DED060B51EC100BFEF7FBF97B
:101F100053EC1C2BFEF7F7F953EC1A2BFEF7F3F9F1
:101F200053EC1B2BFEF7F2F941EC100B9DED261B39
:101F300053EC102B8DED001B00959DED260B51EC05
:101F4000100BFEF7E6F99DED000B41EC1A0B53EC7C
:101F5000102B9DED260B51EC100BFEF7D4F99DEDE7
:101F6000061B53EC112B2FE0000000604715F73FD4
:101F7000FE822B654715F73F44DF5DF80BAE543EFC
:101F800000000000000040438E9803007AB60B006A
:101F900032380000603800006A370000000000009E
:101FA0000000000000000840000000E009C7EE3F0C
:101FB000FD033ADC09C7EE3FF5015B14E02F3EBE9E
:101FC000F6350000B0350000FEF7A3F953EC1A2BEC
:101FD000FEF7F8F89DED060B41EC1A0B53EC102BB5
:101FE0009DED000B51EC100BFEF793F9CDE90C01C0
:101FF0009DED0C0B51EC1A0B53EC102BFEF7E2F895
:10200000CDE902010C46AA498C422FDB611A084334
:1020100018D19DED0C0B53EC102B9DED020B51ECE8
:10202000100BFEF770F941EC1B0B9FEDA30B51EC6D
:102030001A0B53EC102BFEF7C5F853EC1B2BFEF7D5
:1020400043FB2DD2022000F03BFA00F009FA10EE1B
:10205000901A18EE900A8DED020B8DED008B61F356
:102060001E0003909DED020BFFF7BEBB944A24F0C7
:102070000041914214D39349214408437FF4EFACCB
:102080009DED0C0B53EC102B9DED020B51EC100B46
:10209000FEF739F953EC1A2BFEF716FB7FF6DFAC8F
:1020A00024F000408849894A002601EB20518242F1
:1020B0002BDA481C4FF4801121FA00F02044844AA6
:1020C000C0F30A517A44A1F2FF3192ED000B814A2C
:1020D0008DED080BCA4020EA0202C0F3130040F461
:1020E0008010C1F1140120FA01F60992002CB8BF4A
:1020F00076429DED080B53EC102B9DED0C0B51EC33
:10210000100BFEF700F9CDE90C019DED0C0B51EC25
:102110001A0B53EC102BFEF755F89FED6F0B089040
:10212000CDE9085153EC102B9DED080B51EC100B31
:10213000FEF7EFF841EC1B0B9FED690B53EC102BF6
:102140009DED080B51EC100BFEF7E3F89DED0C0B29
:1021500041EC1C0B53EC102B9DED080B51EC100BBC
:10216000FEF7D1F853EC1A2BFEF7D0F89FED5E1B6B
:1021700053EC112BFEF7CDF853EC1C2BFEF722F895
:1021800041EC1A0B51EC1B0B53EC1A2BFEF71AF80F
:10219000CDE902019DED020B53EC1B2B51EC100B12
:1021A000FEF7B1F853EC1A2BFEF7B0F89DED020BD9
:1021B00041EC1A0B53EC102B51EC100BFEF7A9F865
:1021C000CDE908014A489DED080B0521784400F04F
:1021D00097F89DED081B51EC100B53EC112BFEF7FB
:1021E00098F89DED021B53EC112BFEF78FF8CDE90B
:1021F00006019DED020B53EC1A2B51EC100BFEF770
:1022000088F853EC1A2BFDF7DDFF9FED3B0B41ECFB
:102210001A0B53EC102B9DED060B51EC100BFEF737
:1022200072F89DED060B41EC1B0B53EC102B9DED52
:10223000020B51EC100BFEF76CF853EC1B2BFEF766
:10224000DAF853EC1A2BFEF75EF89DED021B53EC07
:10225000112BFEF758F853EC192BFEF757F8CDE980
:10226000020101EB065001150029C8BF039015DCDF
:102270009DED020B324651EC100BFEF7FDF9FFF716
:10228000FCF9042808BF00F0FBF832469DED020B74
:1022900051EC100BFEF7F0F9CDE902019DED020BB8
:1022A00051EC180B53EC102BFEF733F8FFF73ABB49
:1022B0000000904000000000FE822B654715973C0F
:1022C00000CC904000346F3F01FCFFFF0000E03F76
:1022D00038340000FFFF0F0000000000432EE63FEF
:1022E000396CA80C615C20BEEF39FAFE422EE63F45
:1022F0000833000000000000000000000000004063
:1023000070B504462DED028B4D1E00EBC500B0EEFE
:10231000408AF0EE608A90ED000B35F0060017D091
:1023200053EC182B51EC100BFDF7F3FF41EC100BA5
:102330006D1E04EBC50090ED001B51EC100B53EC2F
:10234000112BFDF73FFF41EC100B35F00600E7D1F4
:10235000022D36D0042D1CD0062D1CBFBDEC028BE7
:1023600070BD53EC182B51EC100BFDF7D2FF94ED20
:102370000A1B53EC112BFDF725FF53EC182BFDF72F
:10238000C8FF94ED081B53EC112BFDF71BFF41EC2C
:10239000100B53EC182B51EC100BFDF7BAFF94ED1A
:1023A000061B53EC112BFDF70DFF53EC182BFDF71B
:1023B000B0FF94ED040B53EC102BFDF703FF41EC41
:1023C000100B53EC182B51EC100BFDF7A2FF94ED02
:1023D000021B53EC112BFDF7F5FE53EC182BFDF708
:1023E00098FF94ED001B53EC112BFDF7EBFEBDECB9
:1023F000028B41EC100B70BD9FED070B10B553EC39
:10240000102B9FED070B51EC100BFDF7F4FF41EC87
:10241000100B10BD000000000000000000000000D4
:10242000000000000000F03F10B553EC112B51EC00
:10243000100BFDF7C7FE41EC100B10BD00000000B3
:102440009FED050B10B553EC102B51EC100BFDF765
:10245000D2FF41EC100B10BD000000000000000096
:102460009FED050B10B553EC102B51EC100BFDF745
:1024700050FF41EC100B10BD000000000000007088
:102480009FED050B10B553EC102B51EC100BFDF725
:1024900040FF41EC100B10BD0000000000000010D8
:1024A00002E008C8121F08C1002AFAD1704770471D
:1024B000002001E001C1121F002AFBD1704700007B
:1024C0000149086070470000680000200020394979
:1024D000087048708870C8700871C8809FED360A0F
:1024E000084680ED020A9FED340A80ED030A9FED55
:1024F000320A80ED040A9FED300A80ED050A9FED57
:102500002E0A80ED060A9FED2C0A80ED070A9FED4A
:102510002A0A80ED080A9FED280A80ED090A9FED3E
:10252000260A80ED0A0A9FED240A80ED0B0A00219D
:102530000246116351630020114681F838001F499B
:10254000087048708870C8700871C8809FED1A0ABA
:10255000084680ED020A9FED180A80ED030A9FED00
:10256000160A80ED040A9FED140A80ED050A9FED1E
:10257000120A80ED060A9FED100A80ED070A9FED12
:102580000E0A80ED080A9FED0C0A80ED090A9FED06
:102590000A0A80ED0A0A9FED080A80ED0B0A002165
:1025A0000246116351630020114681F83800044946
:1025B000087070473001002000000000700100200A
:1025C0001100002010B56448007864490870624822
:1025D000407848706048807888705F48C078C870DC
:1025E0005D48007908715C48C088A1F805005A4828
:1025F0008068C1F807005848C068C1F80B00564809
:102600000069C1F80F0054484069C1F813005248EE
:102610008069C1F817005048C069C1F81B004E48D6
:10262000006AC1F81F004C48406AC1F823004A48BC
:10263000806AC1F827004848C06AC1F82B004648A4
:10264000D0E90C10454A2F3211605060424890F892
:102650003800424981F83700002415E000BF80218E
:102660003F48FEF738FF0028F9D03C480078FC28A6
:1026700009D13A4890F83700FD2804D13748015D68
:102680003748FEF7F4FF641C382CE7DB3548007848
:1026900032490870334840784870324880788870F2
:1026A0003048C078C8702F48007908712D48C0881C
:1026B000A1F805002B488068C1F807002948C068C8
:1026C000C1F80B0027480069C1F80F002548406990
:1026D000C1F8130023488069C1F817002148C06978
:1026E000C1F81B001F48006AC1F81F001D48406A5E
:1026F000C1F823001B48806AC1F827001948C06A46
:10270000C1F82B001748D0E90C10144A2F32116081
:102710005060144890F83800104981F837000024C0
:1027200015E000BF80210E48FEF7D5FE0028F9D045
:102730000A480078FC2809D1084890F83700FD289D
:1027400004D10648015D0648FEF791FF641C382C51
:10275000E7DBFFF7BBFE10BD30010020C002002008
:1027600000100140700100201CB54FF44070FEF7CE
:10277000BFF901F09BFA002211464FF4612001F0ED
:102780001BFE002211464FF4612002F0A1FC002044
:102790000090034602460146019042F2D00000F04C
:1027A00089FC00F04BFB01F0BDF900F015F90020A9
:1027B0001CBD0246002002E000231354401C884246
:1027C000FADB704770477047704710B500F0A6F904
:1027D000FFF7F8FE10BD704710B54E4800684E492F
:1027E0000968401AB0F5FA7F27D94A4800684B4972
:1027F0000968401AB0F5FA7F1FD2002048490870D6
:102800008870087188714870C8704871C8714548EF
:102810000078012808D1FF220021084600F0FAFBC9
:1028200000204049087066E00022FF21104600F0B9
:10283000F1FB01203B4908705DE0364800683649ED
:102840000968401AB0F5FA7F23D932480068334945
:102850000968401AB0F5FA7F1BD900F0D3F8FFF7EA
:1028600035FE00F03DFA2F480078012808D10022FB
:102870001146FF2000F0CEFB00202A4908703AE004
:102880000022FF21104600F0C5FB012025490870F9
:1028900031E02048006820490968401AB0F5FA7F05
:1028A00023D21C4800681D490968401AB0F5FA7F18
:1028B0001BD900F0A7F8FFF709FE00F011FA19483C
:1028C0000078012808D100221146FF2000F0A2FB69
:1028D0000020144908700EE0FF220021084600F095
:1028E00099FB01200F49087005E00F4B9A7B597B3B
:1028F000187B00F08FFB00F011FE092001F042F878
:1029000000F08CFD002006494872C8724873C873F5
:1029100010BD000044000020080000200C00002032
:10292000E4040020040000208E0000207047000016
:1029300010B526480078012846D12548008800B205
:1029400024490880FFF73FFF2048B0F9040002281F
:1029500004DB00201D498880FFF73DFF1B48B0F9CC
:102960000600052804DB00201849C880FFF7DEFFB9
:102970001648B0F908000A2804DB00201349088132
:10298000FFF720FF1148B0F90A00142804DB0020EB
:102990000E494881FFF719FF0C48B0F90C003228A6
:1029A00004DB002009498881FFF716FF0748B0F9CA
:1029B0000E00B0F57A7F04DB00200449C881FFF7E0
:1029C00003FF00200149087010BD00006C000020CA
:1029D000540000200200002010B501F09DF901F024
:1029E00025FA01F0A5FA01F027FB10BD82B0CDE970
:1029F000000121F0004001909DED000B02B051EC70
:102A0000100B704700204149087048708870C870EA
:102A10000871C8809FED3E0A084680ED020A9FEDCE
:102A20003C0A80ED030A9FED3A0A80ED040A9FED0F
:102A3000380A80ED050A9FED360A80ED060A9FED03
:102A4000340A80ED070A9FED320A80ED080A9FEDF7
:102A5000300A80ED090A9FED2E0A80ED0A0A9FEDEB
:102A60002C0A80ED0B0A9FED2A0A80ED0C0A9FEDDF
:102A7000280A80ED0D0A002102469163D1630020EF
:102A8000114681F840002349087048708870C8706A
:102A90000871C8809FED1E0A084680ED020A9FED6E
:102AA0001C0A80ED030A9FED1A0A80ED040A9FEDCF
:102AB000180A80ED050A9FED160A80ED060A9FEDC3
:102AC000140A80ED070A9FED120A80ED080A9FEDB7
:102AD000100A80ED090A9FED0E0A80ED0A0A9FEDAB
:102AE0000C0A80ED0B0A9FED0A0A80ED0C0A9FED9F
:102AF000080A80ED0D0A002102469163D16300208F
:102B0000114681F84000044908707047A000002079
:102B100000000000E80000201000002010B56C4804
:102B200000786C4908706A48407848706848807836
:102B300088706748C078C870654800790871644833
:102B4000C088A1F8050062488068C1F807006048A5
:102B5000C068C1F80B005E480069C1F80F005C480E
:102B60004069C1F813005A488069C1F817005848F5
:102B7000C069C1F81B005648006AC1F81F005448DC
:102B8000406AC1F823005248806AC1F827005048C3
:102B9000C06AC1F82B004E48006BC1F82F004C48AA
:102BA000406BC1F833004A48D0E90E10494A373229
:102BB00011605060464890F84000464981F83F0057
:102BC000002415E000BF80214348FEF784FC002864
:102BD000F9D040480078FC2809D13E4890F83F00E1
:102BE000FD2804D13B48015D3B48FEF740FD641CD5
:102BF000402CE7DB39480078364908703748407880
:102C000048703648807888703448C078C870334837
:102C1000007908713148C088A1F805002F48806804
:102C2000C1F807002D48C068C1F80B002B480069A7
:102C3000C1F80F0029484069C1F81300274880698E
:102C4000C1F817002548C069C1F81B002348006A75
:102C5000C1F81F002148406AC1F823001F48806A5C
:102C6000C1F827001D48C06AC1F82B001B48006B43
:102C7000C1F82F001948406BC1F833001748D0E95C
:102C80000E10144A373211605060144890F840001A
:102C9000104981F83F00002415E000BF80210E4854
:102CA000FEF719FC0028F9D00A480078FC2809D161
:102CB000084890F83F00FD2804D10648015D064809
:102CC000FEF7D5FC641C402CE7DBFFF79BFE10BD34
:102CD000A00000208002002000100140E800002039
:102CE00000205049087048708870C8700871C8800A
:102CF0009FED4D0A084680ED020A9FED4B0A80EDDC
:102D0000030A9FED490A80ED040A9FED470A80ED12
:102D1000050A9FED450A80ED060A9FED430A80ED06
:102D2000070A9FED420B80ED080B9FED400B80EDF5
:102D30000A0B9FED3E0B80ED0C0B9FED3B0A80EDE7
:102D40000E0A9FED390A80ED0F0A9FED370A80EDDC
:102D5000100A9FED350A80ED110A9FED330A80EDD0
:102D6000120A9FED310A80ED130A9FED2F0A80EDC4
:102D7000140A002102469165D1650020114681F8B0
:102D800060002C49087048708870C8700871C8804D
:102D90009FED250A084680ED020A9FED230A80ED8B
:102DA000030A9FED210A80ED040A9FED1F0A80EDC2
:102DB000050A9FED1D0A80ED060A9FED1B0A80EDB6
:102DC000070A9FED1A0B80ED080B9FED180B80EDA5
:102DD0000A0B9FED160B80ED0C0B9FED130A80ED97
:102DE0000E0A9FED110A80ED0F0A9FED0F0A80ED8C
:102DF000100A9FED0D0A80ED110A9FED0B0A80ED80
:102E0000120A9FED090A80ED130A9FED070A80ED73
:102E1000140A00200A469065D06581F860000649D2
:102E200008707047B00100200000000000000000A2
:102E300000000000180200201200002000B58BB036
:102E400001214804FDF780FE01218804FDF77CFE86
:102E500001210802FDF768FE01212020FDF754FE44
:102E6000032206216748FDF7DAFD032207216548A2
:102E7000FDF7D5FD092211466248FDF7D0FD02207D
:102E80008DF8280000208DF82A0003208DF82900F5
:102E90004020099001208DF82B0009A95948FDF721
:102EA00076FD02208DF8280000208DF82A000320EE
:102EB0008DF829008020099001208DF82B0009A9A8
:102EC0005048FDF764FD02208DF8280000208DF8A1
:102ED0002A0003208DF829004FF40070099001208A
:102EE0008DF82B0009A94748FDF751FDFF200790F9
:102EF0000020ADF81800ADF82000ADF81A0006A9C2
:102F00004148FEF75DFAFF2007900020ADF8180059
:102F1000ADF82000ADF81A0006A93C48FEF750FABB
:102F2000FF2007900020ADF81800ADF82000ADF8A4
:102F30001A0006A93648FEF743FA6020ADF80400EF
:102F40000120ADF806000220ADF810000020ADF819
:102F50001400039001A92C48FEF7B8F808212A486C
:102F6000FEF7F2F801212848FEF72CF80121264847
:102F7000FEF737F801212448FEF73FF86020ADF84E
:102F800004000120ADF806000220ADF8100000207A
:102F9000ADF81400039001A91C48FEF797F808212A
:102FA0001A48FEF7D1F801211848FEF70BF8012165
:102FB0001648FEF716F801211448FEF71EF86020A7
:102FC000ADF804000120ADF806000220ADF81000B5
:102FD0000020ADF81400039001A90D48FEF776F823
:102FE00008210B48FEF7B0F801210948FDF7EAFF78
:102FF00001210748FDF7F5FF01210548FDF7FDFF19
:103000000BB000BD001402400044014000480140E4
:1030100000200040034B1860034B1960034B5A63B8
:103020007047000034440140344801400020004013
:103030001748008A401C1649088208468088401CB0
:1030400000B288800846C088401C00B2C88008468C
:103050000089401C00B2088108464089401C00B22B
:10306000488108468089401C00B288810846C08992
:10307000401C00B2C88108460078012804D10846E7
:103080004078401C487002E00120014908707047F8
:103090006C00002010B5FFF767FB0549087001E0E0
:1030A000FFF746FC024800780028F9D0002010BD48
:1030B000000000202DE9F0438BB004460D46174672
:1030C0001E46DDE9128901215020FDF71DFD4FF458
:1030D0008060099001208DF8280000208DF82A00DA
:1030E00002208DF8290009A9A448FDF750FC802092
:1030F000099001208DF8280000208DF82A00022078
:103100008DF8290009A99D48FDF741FC0820099088
:1031100001208DF8280000208DF82A0002208DF86B
:10312000290009A99648FDF732FC4FF48050099018
:1031300001208DF8280000208DF82A0002208DF84B
:10314000290009A98E48FDF722FC80200990012062
:103150008DF8280000208DF82A0002208DF8290023
:1031600009A98748FDF713FC0420099001208DF878
:10317000280000208DF82A0002208DF8290009A9D6
:103180007F48FDF704FC4FF40060099001208DF8A2
:10319000280000208DF82A0002208DF8290009A9B6
:1031A0007748FDF7F4FB4FF40050099001208DF8AB
:1031B000280000208DF82A0002208DF8290009A996
:1031C0006F48FDF7E4FB4FF480616C48FDF74CFC61
:1031D00080216A48FDF748FC08216948FDF744FC56
:1031E0004FF480516648FDF73FFC80216448FDF7AD
:1031F00039FC04216248FDF735FC4FF4006160485A
:10320000FDF730FC4FF400515D48FDF72BFC012128
:103210000846FDF799FC01211020FDF775FC0122FD
:1032200009215648FDF7FBFB01220B215348FDF70E
:10323000F6FB01220D215148FDF7F1FB01220E2181
:103240004E48FDF7ECFB02208DF8280000208DF899
:103250002A0003208DF829004FF400700990012006
:103260008DF82B0009A94548FDF791FB02208DF848
:10327000280000208DF82A0003208DF829004FF443
:103280000060099001208DF82B0009A93B48FDF74B
:103290007EFB02208DF8280000208DF82A000320F4
:1032A0008DF829004FF40050099001208DF82B0073
:1032B00009A93248FDF76BFB02208DF82800002099
:1032C0008DF82A0003208DF829004FF480400990E2
:1032D00001208DF82B0009A92848FDF758FB601E36
:1032E0000790A8B2ADF818000020ADF82000ADF8A6
:1032F0001A0006A92348FEF763F86020ADF8040021
:103300000120ADF806000220ADF810000020ADF855
:103310001400039701A91B48FDF7D8FE082119489E
:10332000FDF712FF039601A91648FDF717FF0821C4
:103330001448FDF765FFCDF80C8001A91148FDF791
:103340006DFF08210F48FDF7B9FFCDF80C9001A9DA
:103350000C48FDF7BDFF08210A48FDF7F5FF0121E4
:103360000848FDF72FFE01210648FDF73AFE01212E
:103370000448FDF742FE0BB0BDE8F08300100240A8
:1033800000180240000001402DE9F05F04460D46A0
:1033900016461F46DDE90CABDDE90A892CB94FF46E
:1033A00080611B48FDF75EFB04E04FF48061184824
:1033B000FDF75AFB26B980211548FDF753FB03E0C2
:1033C00080211348FDF750FBB8F1000F04D108210C
:1033D0001048FDF747FB03E008210E48FDF744FBCA
:1033E000BAF1000F05D14FF480510A48FDF73AFBBE
:1033F00004E04FF480510748FDF736FB064845636B
:103400008763C0F83C90C0F840B0BDE8F09F000072
:1034100000100240001802400000014010B5632077
:103420003B49087076204870002088700920C870D9
:103430003848407810B9002088800AE03548007A82
:1034400010B13448407A02E03248407A4042304974
:1034500088803048C07818B900202D49C8800AE01B
:103460002C48807A10B12B48C07A02E02948C07AF3
:1034700040422749C8802748407918B9002024498C
:1034800008810AE02348007B10B12248407B02E01B
:103490002048407B40421E4908811E48C07918B927
:1034A00000201B4948810AE01A48807B10B1194866
:1034B000C07B02E01748C07B404215494881002488
:1034C00013E000BF80211448FEF705F80028F9D06A
:1034D0000F48015D1048FEF7CAF80D48407B0C49C3
:1034E000095D08440A494873641C0D2CE9DB00BFE0
:1034F00080210948FDF7EFFF0028F9D00448417BFF
:103500000548FEF7B4F800200149487310BD0000DB
:1035100080000020E4040020001001401FB5FC489A
:103520000078FB49097A884259D1F9484078F8492E
:10353000497A401AF64908610969F54A5269891AB7
:10354000F44AB2F90020012303FB0121F04A126979
:10355000282303FB0211EE4A1269ED4B5B6902243A
:1035600004FB1322EA4B9B691A44002303FB02105D
:10357000002801DB014600E0414209B2E54A118022
:10358000E3484069E249886108460069486110469D
:10359000B0F9000041F2707188420ADA1046B0F9C1
:1035A0000000114608804FF40071DB48FDF75AFA1D
:1035B00024E0D748407A48B141F27070D54908807C
:1035C0004FF40071D448FDF74DFA17E00020D149BF
:1035D00008804FF40071D048FDF746FA0EE0CC4861
:1035E0000078CB4908728021CC48FDF73BFA0020D7
:1035F000C8490880C649086188614861C448407864
:1036000038B98021C548FDF72DFA0020C14908804E
:1036100003E08021C148FDF727FABD488078BC4906
:10362000897A884259D1BA48C078B949C97A401ACA
:10363000B749C861C969B64A126A891AB84AB2F963
:103640000020012303FB0121B14AD269282303FB97
:103650000211AF4AD269AE4B1B6A022404FB13224B
:10366000AB4B5B6A1A44002303FB0210002801DB0A
:10367000014600E0414209B2A94A1180A448006A0B
:10368000A34948620846C06908621046B0F90000C4
:1036900041F2707188420ADA1046B0F90000114612
:1036A00008804FF400719C48FDF7DCF924E098484D
:1036B000C07A48B141F27070994908804FF40071A6
:1036C0009548FDF7CFF917E00020954908804FF4A1
:1036D00000719148FDF7C8F90EE08D4880788C495B
:1036E000887204218D48FDF7BDF900208C490880BF
:1036F0008749C861486208628548C07838B90421A2
:103700008648FDF7AFF900208549088003E00421D1
:103710008248FDF7A9F97E4800797D49097B8842F6
:1037200059D17B4840797A49497B401A7849886267
:10373000896A774AD26A891A7A4AB2F90020012343
:1037400003FB0121724A926A282303FB0211704A8B
:10375000926A6F4BDB6A022404FB13226C4B1B6BD7
:103760001A44002303FB0210002801DB014600E09D
:10377000414209B26B4A11806548C06A64490863D6
:103780000846806AC8621046B0F9000041F27071C4
:1037900088420ADA1046B0F90000114608804FF45A
:1037A00000715D48FDF75EF925E05948407B48B15E
:1037B00041F270705B4908804FF400715648FDF784
:1037C00051F918E00020574908804FF40071524821
:1037D000FDF74AF90FE04E4800794D4908734FF460
:1037E00000614E48FDF73EF900204E4908804849E7
:1037F00088620863C8624648407940B94FF4006166
:103800004648FDF72FF900204649088004E04FF4B0
:1038100000614248FDF728F93D4880793C49897BA1
:10382000884259D13A48C0793949C97B401A384948
:103830004863496B364A926B891A3B4AB2F90020B9
:10384000012303FB0121324A526B282303FB02119F
:103850002F4A526B2E4B9B6B022404FB13222C4BE2
:10386000DB6B1A44002303FB0210002801DB014636
:1038700000E0414209B22C4A11802548806B24495E
:10388000C8630846406B88631046B0F9000041F2F7
:10389000707188420ADA1046B0F9000011460880BB
:1038A0004FF400711C48FDF7DDF825E01848C07B97
:1038B00048B141F270701C4908804FF400711648FD
:1038C000FDF7D0F818E00020174908804FF4007188
:1038D0001148FDF7C9F80FE00D4880790C4988734D
:1038E0004FF400510D48FDF7BDF800200E49088047
:1038F00007494863C86388630548C079B0B94FF485
:1039000000510648FDF7AEF800200749088012E094
:10391000E40400203A000020001402400018024095
:103920003C0000203E000020400000204FF40051E9
:103930000E48FDF799F80E48B0F900200D4880793F
:103940000D49B1F900300B490979CDE90013CDE9F2
:10395000020208498A7808780849B1F90030084914
:10396000B1F90010FFF710FD1FBD00000018024064
:1039700040000020E40400203E0000203C00002025
:103980003A00002070B52DED108B05469FED4D0BD4
:10399000B0EE408AF0EE608A0723012229464B48A8
:1039A000FCF768FF4948FCF7C1FF00BF0221474808
:1039B000FCF72CFF0028F9D04448FCF723FF06460B
:1039C000FCF788FD41EC1B0B9FED410B53EC102BDA
:1039D000FCF79FFC41EC1A0B9FED3F0B53EC102BB7
:1039E000FCF709FD41EC190B9FED3D0B53EC102B3F
:1039F000FCF78FFC41EC180B53EC182B9FED3A0BA6
:103A000051EC100BFCF785FC41EC1B0B9FED381BB8
:103A1000B0EE480AF0EE680AFDF74AFEB0EE40FA52
:103A2000F0EE60FA9FED340B53EC102B51EC1F0BB2
:103A3000FCF76FFC41EC1D0B9FED311BB0EE480A0B
:103A4000F0EE680AFDF734FEB0EE40FAF0EE60FAF0
:103A50009FED2D0B53EC102B51EC1F0BFCF759FC79
:103A600041EC1E0B53EC1D2BFCF7ACFB41EC1C0B8B
:103A700053EC1B2BFCF747FC41EC1A0B9FED240B7E
:103A800053EC102BFCF79EFB41EC190BFCF72FFDC0
:103A900044B2642C01DD642402E0002C00DA00242E
:103AA0009FED1D0B53EC102B51EC180BFCF73EFD5A
:103AB00003D2FF201A49087301E019490C73BDECC9
:103AC000108B70BD000000000000000000200140CD
:103AD0006666666666660A40000000000000B04048
:103AE000CDCCCCCCCCCC1640000000000060844093
:103AF00000000000000000405C8FC2F5287C4640BA
:103B00000000000000000840BD5296218E75EFBFF6
:103B10000000000000BCA740000000000000F03FD3
:103B20008000002000B58DB001210220FCF7ECFFE1
:103B300001210802FDF708F802200B9003208DF800
:103B4000300000208DF833000BA91548FCF71FFF4B
:103B500001210802FDF708F800214FF48070FDF7FD
:103B600003F8002007900A9009904FF480300890E5
:103B700007A8FCF72FFE002001908DF808008DF8B3
:103B800009000390059001208DF8180001A905484F
:103B9000FCF746FE01210348FCF711FE0DB000BD05
:103BA000000402400020014000B52DED048B83B0DD
:103BB00041EC190BFCF7B2FD41EC180B18EE100AA2
:103BC00018EE901A8DED008B002818BF01200843D5
:103BD00020F00040C0F17F6000F1E040C00F14D041
:103BE00019EE101A19EE900A8DED009B002918BFEE
:103BF0000121084320F00040C0F17F6000F1E04067
:103C0000C00F04BF0120FEF75BFC51EC180B03B0A2
:103C1000BDEC048B00BD000010B51F48007800B15A
:103C200010BD1E48006840F2E731884207DA1B48A1
:103C30000068401C19490860FFF7FAF929E00020E4
:103C400016490860164800683B2805DA14480068E1
:103C5000401C134908601CE000201149086011480D
:103C600000683B2805DA0F480068401C0D490860D1
:103C70000FE000200B4908600B480068172805DAA0
:103C800009480068401C0849086002E00020064915
:103C9000086000BFC4E700000000002054000020BE
:103CA000500000204C000020480000207FB56846EE
:103CB000FCF76AFF4FF47A710198B0FBF1F4E40865
:103CC0002146481EB0F1807F00D31BE0481E4FF014
:103CD000E022506150170F22002807DA13071E0E4A
:103CE0000B4B00F00F052D1F5E5503E013071D0E53
:103CF000084B1D5400BF00204FF0E02290610720C8
:103D0000106100BF6FF00400FDF728F87FBD0000D0
:103D100018ED00E000E400E000B589B0012108469C
:103D2000FCF702FF01210846FCF7EEFE012102200C
:103D3000FCF7EAFE4FF40040079002208DF82000C7
:103D400003208DF8210000208DF8230001208DF83C
:103D5000220007A93348FCF71AFE0820079002202A
:103D60008DF8200003208DF8210000208DF823001D
:103D700001208DF8220007A92B48FCF708FE01223C
:103D80000F212848FCF74BFE012203212648FCF7AF
:103D900046FE04A8FDF756FB0020ADF810004FF6D4
:103DA000FF7005900020ADF81800ADF8120004A9CE
:103DB0004FF08040FDF704FB0020ADF804000A201E
:103DC000ADF806000120ADF808000020ADF80A00AB
:103DD00001A8FDF769F90020ADF80C0001A94FF02A
:103DE0008040FDF72AF900214FF08040FDF7B9FA35
:103DF00001218807FDF7F5F81C208DF8000001204F
:103E00008DF8010000208DF8020001208DF80300DC
:103E10006846FCF731FE012202214807FDF74DF903
:103E200009B000BD000002400004024000B589B0A6
:103E300001210220FCF778FE01210220FCF764FE3C
:103E40001020079002208DF8200003208DF821001B
:103E500000208DF8230001208DF8220007A93248A8
:103E6000FCF795FD2020079002208DF8200003200C
:103E70008DF8210000208DF8230001208DF822000C
:103E800007A92948FCF783FD022204212648FCF7F4
:103E9000C6FD022205212448FCF7C1FD04A8FDF758
:103EA000D1FA0020ADF810004FF6FF700590002009
:103EB000ADF81800ADF8120004A91C48FDF780FA0F
:103EC0000020ADF804000A20ADF806000120ADF88E
:103ED00008000020ADF80A0001A8FDF7E5F8002071
:103EE000ADF80C0001A91148FDF7A7F800210F4813
:103EF000FDF737FA01210D48FDF773F81D208DF805
:103F0000000001208DF8010000208DF80200012042
:103F10008DF803006846FCF7AFFD0122022103483B
:103F2000FDF7CBF809B000BD0004024000040040DA
:103F300000B589B001210420FCF7F6FD012108201D
:103F4000FCF7E2FD4FF48050079002208DF820002E
:103F500003208DF8210000208DF8230001208DF82A
:103F6000220007A93248FCF712FD4FF400500790D9
:103F700002208DF8200003208DF8210000208DF80C
:103F8000230001208DF8220007A92948FCF7FFFC37
:103F900002220C212648FCF742FD02220D21244872
:103FA000FCF73DFD04A8FDF74DFA0020ADF8100028
:103FB0004FF6FF7005900020ADF81800ADF8120024
:103FC00004A91C48FDF7FCF90020ADF804000A2004
:103FD000ADF806000120ADF808000020ADF80A0099
:103FE00001A8FDF761F80020ADF80C0001A9114807
:103FF000FDF723F800210F48FDF7B3F901210D4823
:10400000FCF7EFFF1E208DF8000001208DF8010065
:1040100000208DF8020001208DF803006846FCF7AF
:104020002BFD012202210348FDF747F809B000BD2E
:10403000000C02400008004000B589B001210820B2
:10404000FCF772FD01210820FCF75EFD01200790BE
:1040500002208DF8200003208DF8210000208DF82B
:10406000230001208DF8220007A93248FCF78FFCBD
:10407000022007908DF8200003208DF821000020F9
:104080008DF8230001208DF8220007A92948FCF7AC
:104090007EFC022200212748FCF7C1FC02220121FC
:1040A0002448FCF7BCFC04A8FDF7CCF90020ADF8CF
:1040B00010004FF6FF7005900020ADF81800ADF825
:1040C000120004A91C48FDF77BF90020ADF804009C
:1040D0000A20ADF806000120ADF808000020ADF878
:1040E0000A0001A8FCF7E0FF0020ADF80C0001A9D0
:1040F0001148FCF7A2FF00210F48FDF732F901211A
:104100000D48FCF76EFF32208DF8000001208DF87D
:10411000010000208DF8020001208DF803006846A0
:10412000FCF7AAFC012202210348FCF7C6FF09B0F4
:1041300000BD000000000240000C004098490978D2
:10414000102913D2DFE801F00813243445505B66D0
:10415000717C87929DA8B3BE632807D10121904A44
:1041600011709049097801448E4A117011E1752847
:1041700008D102218A4A11708A4909780144894A82
:10418000117004E00021864A1170864A117000E126
:1041900040B90321824A1170824909780144814A59
:1041A000117004E000217E4A11707E4A1170F0E027
:1041B0000B2808D104217A4A11707A490978014400
:1041C000784A117004E00021754A1170754A117027
:1041D000DFE0754908710521714A1170714909784C
:1041E0000144704A1170D4E06F49487106216C4A4D
:1041F00011706C49097801446A4A1170C9E06A4932
:1042000088710721664A1170664909780144654A38
:104210001170BEE06449C8710821614A117061499A
:10422000097801445F4A1170B3E05F4908720921BF
:104230005B4A11705B49097801445A4A1170A8E041
:10424000594948720A21564A117056490978014461
:10425000544A11709DE0544988720B21504A1170E4
:104260005049097801444F4A117092E04E49C87292
:104270000C214B4A11704B4909780144494A11708D
:1042800087E0494908730D21454A1170454909786D
:104290000144444A11707CE0434948730E21404A6E
:1042A00011704049097801443E4A117071E03E495D
:1042B00088730F213A4A11703A4909780144394A02
:1042C000117066E0374A1178CA1701EB12621212B8
:1042D000A1EB0222334B1A703349B1F904100029C3
:1042E00001DD012100E00021304A11702E4AB2F9AF
:1042F0000410002901DB0A4600E04A422B4B5A70A9
:104300002949B1F90610002901DD012100E0002151
:10431000264A9170244AB2F90610002901DB0A46A8
:1043200000E04A42214BDA701F49B1F90810002918
:1043300001DD012100E000211C4A11711A4AB2F985
:104340000810002901DB0A4600E04A42174B5A7167
:104350001549B1F90A10002901DD012100E0002111
:10436000124A9171104AB2F90A10002901DB0A467B
:1043700000E04A420D4BDA7100210A4A1170084AE6
:104380001170094A9180D18011815181054A1170C3
:1043900000BF00BF06490968064A11607047000067
:1043A00013000020140000208E000020E4040020F0
:1043B000440000200800002070B588B006460C4676
:1043C000154601211020FCF7BFFB01210846FCF730
:1043D0009BFB072209212448FCF721FB07220A2125
:1043E0002148FCF71CFB4FF4C060029002208DF8BE
:1043F0000C008DF80D0000208DF80E0001208DF8C6
:104400000F0002A91848FCF7C2FA04960020ADF884
:104410001400ADF81600ADF81800ADF81C000C2023
:10442000ADF81A0004A91148FDF7B2F8012240F2D4
:1044300025510E48FDF786F825208DF804008DF8EB
:1044400005408DF8065001208DF8070001A8FCF703
:1044500013FB01210548FDF732F840210348FDF721
:1044600025F808B070BD00000000024000100140B7
:1044700070B504460026E1480078172864D00BDCAC
:1044800014282AD003DC78B1012814D114E01528AF
:1044900035D01628F9D13AE0183805280BD2DFE8D4
:1044A00000F05B6B8899BC00FC2C04D10120D3493F
:1044B0000870D34804709BE1412C0AD11420CF49E5
:1044C0000870CF484470FC20CE49087008464470FC
:1044D00002E00020C94908708AE1302C07D115207C
:1044E000C6490870C6488470C648847006E000203B
:1044F000C24908700221C348FEF75BF978E1162033
:10450000BE490870BE48C470BE48C47070E1042142
:10451000BB48FCF729FA0646A64205D11720B74941
:104520000870B848047106E00020B44908700421FE
:10453000B448FEF73EF9002503E00020B049485595
:104540006D1C042DF9DB53E1AF480470AD48447194
:104550001820AA4908704BE1AC480470A94884713E
:10456000AA480078A849097840EA0120A8490880AB
:104570001920A24908703BE1A249A6480078C01D55
:104580000C54A548A34909784454A2480078401C1B
:10459000A049087008460078302803DA19209749A6
:1045A000087005E01A2095490870002099490870A4
:1045B0001EE1FD2C06D11B2090490870914880F81F
:1045C000374006E000208D49087037218D48FEF7FE
:1045D000F0F80DE130219048FCF7B0F98F490880E0
:1045E000084600888A490988884203D11C208349EB
:1045F000087006E000208149087038218148FEF7E4
:10460000D8F830218448FEF7D4F800207E4908709D
:104610007E4908707E490880EAE081480078E8BB5E
:10462000784800787F490870764840784870754827
:10463000807888707348C078C870724800790871B3
:104640007048B0F80500C8806E48D0F80700886050
:104650006C48D0F80B00C8606A48D0F80F000861B9
:104660006848D0F8130048616648D0F817008861A0
:104670006448D0F81B00C8616248D0F81F00086287
:104680006048D0F8230048625E48D0F8270088626E
:104690005C48D0F82B00C8625A4800E00CE02F308C
:1046A000016840685F4AC2E90C10564890F837002C
:1046B000114681F838004CE059480078012848D16B
:1046C00050480078584908704E48407848704D4826
:1046D000807888704B48C078C8704A480079087163
:1046E0004848B0F80500C8804648D0F80700886000
:1046F0004448D0F80B00C8604248D0F80F00086169
:104700004048D0F8130048613E48D0F8170088614F
:104710003C48D0F81B00C8613A48D0F81F00086236
:104720003848D0F8230048623648D0F8270088621D
:104730003448D0F82B00C86232482F3001684068F6
:10474000394AC2E90C102F4890F83700114681F819
:1047500038000020294908702A490870487088707C
:10476000C8700871A1F805009FED300A10EE100A1C
:10477000C1F807009FED2D0A10EE100AC1F80B00DA
:104780009FED2A0A10EE100AC1F80F009FED270ACC
:1047900010EE100AC1F813009FED240A10EE100A63
:1047A000C1F817009FED210A10EE100AC1F81B0096
:1047B0009FED1E0A10EE100AC1F81F009FED1B0AA4
:1047C00010EE100AC1F823009FED180A10EE100A2F
:1047D000C1F827009FED150A10EE100AC1F82B0052
:1047E000002001F12F021060506081F8370000BFF7
:1047F00000BF0F4800680F49086070BD220000200C
:1048000024000020940300202A0000202B00002018
:104810002C0000202300002060040020280000203D
:104820001100002030010020700100200000000075
:10483000440000200C00002070B504460026EC481F
:104840000078132812D2DFE800F00A1211111111BA
:104850001111111123353D5A62728FA0C300FC2C37
:1048600004D10120E2490870E2480470B9E1402C0B
:104870000AD10A20DE490870DE484470FC20DE4977
:1048800008700846447002E00020D9490870A8E189
:10489000382C07D10B20D6490870D6488470D648EA
:1048A000847006E00020D24908700221D248FDF74A
:1048B00080FF96E10C20CE490870CE48C470CE48E7
:1048C000C4708EE10421CB48FCF74EF80646A642A0
:1048D00005D10D20C6490870C748047106E00020C4
:1048E000C34908700421C448FDF763FF002503E0B5
:1048F0000020C04948556D1C042DF9DB71E1BF480B
:104900000470BD4844710E20B949087069E1BC4883
:104910000470B9488471BA480078B849097840EA07
:104920000120B84908800F20B149087059E1B24907
:10493000B5480078C01D0C54B448B34909784454B4
:10494000B1480078401CB049087008460078382803
:1049500003DA0F20A649087005E01020A44908706A
:104960000020A94908703CE1FD2C06D11120A04986
:104970000870A14880F83F4006E000209C4908707C
:104980003F219D48FDF715FF2BE138219F48FBF79C
:10499000D5FF9F490880084600889A4909888842BF
:1049A00003D112209249087006E000209049087057
:1049B00040219148FDF7FDFE38219448FDF7F9FEAE
:1049C00000208E4908708E4908708E49088008E1E1
:1049D00090480078002854D1874800788E490870A4
:1049E0008548407848708448807888708248C078CC
:1049F000C8708148007908717F48B0F80500C88008
:104A00007D48D0F8070088607B48D0F80B00C8606C
:104A10007948D0F80F0008617748D0F81300486152
:104A20007548D0F8170088617348D0F81B00C8613A
:104A30007148D0F81F0008626F48D0F82300486220
:104A40006D48D0F8270088626B48D0F82B00C86208
:104A50006948D0F82F0008636748D0F833004863EE
:104A600065483730016840686B4AC2E90E106248F9
:104A700090F83F00114681F8400001206549087018
:104A800054E064480078012850D15B4800786349BD
:104A90000870594840784870574880788870564860
:104AA000C078C8705448007908715348B0F80500C0
:104AB000C8805148D0F8070088604F48D0F80B00F4
:104AC000C8604D48D0F80F0008614B48D0F813007B
:104AD00048614948D0F8170088614748D0F81B0062
:104AE000C8614548D0F81F0008624348D0F8230049
:104AF00048624148D0F8270088623F48D0F82B0030
:104B0000C8623D48D0F82F0008633B48D0F8330016
:104B100048633948373001684068404AC2E90E109E
:104B2000354890F83F00114681F840000020304998
:104B300008703149087048708870C8700871A1F811
:104B400005009FED370A10EE100AC1F807009FED2F
:104B5000340A10EE100AC1F80B009FED310A10EE76
:104B6000100AC1F80F009FED2E0A10EE100AC1F8CE
:104B700013009FED2B0A10EE100AC1F817009FEDED
:104B8000280A10EE100AC1F81B009FED250A10EE4E
:104B9000100AC1F81F009FED220A10EE100AC1F89A
:104BA00023009FED1F0A10EE100AC1F827009FEDA9
:104BB0001C0A10EE100AC1F82B009FED190A10EE26
:104BC000100AC1F82F009FED160A10EE100AC1F866
:104BD0003300002001F137021060506081F83F007F
:104BE00000BF00BF0F4800680F49086070BD00009B
:104BF0001500002017000020540300201E00002094
:104C00001F000020200000201600002028040020A3
:104C10001C00002010000020A0000020E800002060
:104C200000000000440000200C00002070B5044685
:104C30000026FE480078212864D00BDC1E282AD0EC
:104C400003DC78B1012814D114E01F2835D02028C6
:104C5000F9D13AE0223805280BD2DFE800F05B6B8F
:104C60008899BC00FC2C04D10120F0490870F04860
:104C7000047022E2422C0AD11E20EC490870EC4854
:104C80004470FC20EB4908700846447002E00020A4
:104C9000E649087011E2542C07D11F20E34908703F
:104CA000E3488470E348847006E00020DF49087020
:104CB0000221E048FDF77DFDFFE12020DB4908707F
:104CC000DB48C470DB48C470F7E10421D848FBF727
:104CD0004BFE0646A64205D12120D4490870D5488E
:104CE000047106E00020D14908700421D148FDF785
:104CF00060FD002503E00020CD4948556D1C042DC2
:104D0000F9DBDAE1CC480470CA4844712220C74973
:104D10000870D2E1C9480470C6488471C748007859
:104D2000C549097840EA0120C54908802320BF49C8
:104D30000870C2E1BF49C3480078C01D0C54C24886
:104D4000C04909784454BF480078401CBD490870E8
:104D500008460078542803DA2320B449087005E097
:104D60002420B24908700020B6490870A5E1FD2C46
:104D700006D12520AD490870AE4880F85B4006E0BA
:104D80000020AA4908705B21AA48FDF712FD94E1B2
:104D90005421AD48FBF7D2FDAC4908800846008895
:104DA000A7490988884203D12620A049087006E057
:104DB00000209E4908705C219E48FDF7FAFC5421B2
:104DC000A148FDF7F6FC00209B4908709B4908703C
:104DD0009B49088071E19E48007800286BD1954876
:104DE00000789C49087093484078487091488078D2
:104DF00088709048C078C8708E48007908718D48D6
:104E0000B0F80500C8808B48D0F807008860894852
:104E1000D0F80B00C8608748D0F80F0008618548BB
:104E2000D0F8130048618348D0F8170088618148A2
:104E3000D0F81B00C8617F491F3108684968854A5E
:104E4000C2E908017B49273108684968C2E90A01BB
:104E500078492F3108684968C2E90C017548D0F8D3
:104E60003700114688637348D0F83B00C863714827
:104E7000D0F83F0008646F48D0F8430048646D489C
:104E8000D0F8470088646B48D0F84B00C864694884
:104E9000D0F84F0008656748533001684068C2E9A0
:104EA0001610644890F85B00114681F860000120FC
:104EB000674908706BE066480078012867D15D4853
:104EC0000078654908705B48407848705948807898
:104ED00088705848C078C87056480079087155489D
:104EE000B0F80500C8805348D0F8070088605148E2
:104EF000D0F80B00C8604F48D0F80F0008614D484B
:104F0000D0F8130048614B48D0F817008861494831
:104F1000D0F81B00C86147491F31086849684E4AEC
:104F2000C2E908014349273108684968C2E90A0112
:104F300040492F3108684968C2E90C013D48D0F862
:104F40003700114688633B48D0F83B00C8633948B6
:104F5000D0F83F0008643748D0F84300486435482B
:104F6000D0F8470088643348D0F84B00C864314813
:104F7000D0F84F0008652F49533108684968C2E9E5
:104F800016012C4890F85B00114681F86000002063
:104F9000264908702749087048708870C8700871E1
:104FA000A1F805009FED2D0A10EE100AC1F80700C8
:104FB0009FED2A0A10EE100AC1F80B009FED270A98
:104FC00010EE100AC1F80F009FED240A10EE100A2F
:104FD000C1F813009FED210A10EE100AC1F8170066
:104FE0009FED1E0A10EE100AC1F81B009FED1C0B6E
:104FF00051EC100B0F4A1F32106051609FED180BDF
:1050000051EC100B0832106051609FED150B51EC04
:10501000100B0832106051609FED100A10EE100A5C
:105020000449C1F837009FED0D0A1DE02E00002055
:1050300030000020CC030020360000203700002084
:10504000380000202F0000209004002034000020B1
:1050500012000020B0010020180200200000000013
:10506000000000000000000010EE100AC1F83B0034
:105070001FED060A10EE100AC1F83F001FED090AE5
:1050800010EE100AC1F843001FED0C0A10EE100AD2
:10509000C1F847001FED0F0A10EE100AC1F84B00CF
:1050A0001FED120A10EE100AC1F84F000020243242
:1050B0001060506081F85B0000BF00BF02480068CC
:1050C0000249086070BD0000440000200C00002070
:1050D00070B588B006460C46154601218804FBF7DA
:1050E00023FD01210220FBF70FFD07220B211F48A2
:1050F000FBF795FC4FF40060029002208DF80C0045
:105100008DF80D0000208DF80E0001208DF80F00A5
:1051100002A91648FBF73BFC04960020ADF81400EA
:10512000ADF81600ADF81800ADF81C000420ADF87D
:105130001A0004A90E48FCF72BFA012240F225516F
:105140000B48FCF7FFF927208DF804008DF8054087
:105150008DF8065001208DF8070001A8FBF78CFCA4
:1051600001210348FCF7ABF908B070BD0004024010
:1051700000480040005EBCE2613FDD83C29C7E20AF
:10518000A3FD1F419DC3217FFCA2401E5F01E3BD23
:105190003E6082DC237D9FC1421CFEA0E1BF5D0317
:1051A00080DE3C62BEE0025CDF81633D7C22C09E0B
:1051B0001D43A1FF4618FAA427799BC584DA3866F7
:1051C000E5BB5907DB856739BAE406581947A5FBE3
:1051D0007826C49A653BD987045AB8E6A7F91B45D7
:1051E000C6987A24F8A6441A99C7257B3A6486D8CB
:1051F0005B05E7B98CD2306EEDB3510F4E10F2ACB7
:105200002F7193CD114FADF3702ECC92D38D6F31A2
:10521000B2EC0E50AFF1134DCE90722C6D33D18F96
:105220000C52B0EE326C8ED0530DEFB1F0AE4C128A
:1052300091CF2D73CA947628ABF517490856B4EA76
:105240006937D58B5709EBB536688AD495CB297762
:10525000F4AA4816E9B7550B88D6346A2B7597C956
:105260004A14F6A8742AC896154BA9F7B6E80A544A
:10527000D7896B3500002110422063308440A5504F
:10528000C660E770088129914AA16BB18CC1ADD18C
:10529000CEE1EFF13112100273325222B552944234
:1052A000F772D662399318837BB35AA3BDD39CC3DC
:1052B000FFF3DEE36224433420040114E664C77480
:1052C000A44485546AA54BB528850995EEE5CFF52C
:1052D000ACC58DD55336722611163006D776F666D4
:1052E0009556B4465BB77AA719973887DFF7FEE77C
:1052F0009DD7BCC7C448E5588668A77840086118A0
:1053000002282338CCC9EDD98EE9AFF948896999CB
:105310000AA92BB9F55AD44AB77A966A711A500A73
:10532000333A122AFDDBDCCBBFFB9EEB799B588B1B
:105330003BBB1AABA66C877CE44CC55C222C033CBF
:10534000600C411CAEED8FFDECCDCDDD2AAD0BBD6B
:10535000688D499D977EB66ED55EF44E133E322E13
:10536000511E700E9FFFBEEFDDDFFCCF1BBF3AAFBB
:10537000599F788F8891A981CAB1EBA10CD12DC119
:105380004EF16FE18010A100C230E32004502540AF
:1053900046706760B9839893FBA3DAB33DC31CD30F
:1053A0007FE35EF3B1029012F322D23235421452FF
:1053B00077625672EAB5CBA5A89589856EF54FE55B
:1053C0002CD50DC5E234C324A0148104667447644F
:1053D00024540544DBA7FAB79987B8975FE77EF7AF
:1053E0001DC73CD7D326F2369106B016576676769F
:1053F000154634564CD96DC90EF92FE9C899E9897B
:105400008AB9ABA94458654806782768C018E108EE
:105410008238A3287DCB5CDB3FEB1EFBF98BD89B4E
:10542000BBAB9ABB754A545A376A167AF10AD01A3E
:10543000B32A923A2EFD0FED6CDD4DCDAABD8BAD9A
:10544000E89DC98D267C076C645C454CA23C832C8E
:10545000E01CC10C1FEF3EFF5DCF7CDF9BAFBABFEE
:10546000D98FF89F176E367E554E745E932EB23EDE
:10547000D10EF01E00000000000000000000F03F10
:10548000000000000000F83F0000000000000000E5
:105490000000004003B8E23F0000000000000000F0
:1054A00006D0CF43EBFD4C3E033333333333E33F7E
:1054B000FFAB6FDBB66DDB3F4D268F515555D53FAA
:1054C00001411DA96074D13F65DBC9934A86CD3F78
:1054D000EF4E454A287ECA3F3E5555555555C53F66
:1054E00093BDBE166CC166BF2CDE25AF6A56113F58
:1054F000F16BD2C541BDBBBED0A4BE726937663E5A
:1055000000000000000000002855000800000020F6
:105510006C000000A0240008945500086C000020D6
:10552000BC080000B02400080000000001000000DA
:10553000000000000000000000000000000000006B
:10554000000000000000000000000000000000005B
:10555000000000000000000000000000000000004B
:10556000000000000000000000000000000000003B
:10557000000000000000000000000000000000002B
:1055800000000000010203040102030406070809E9
:045590000000000017
:040000050800018965
:00000001FF
